:0400000080314328E0
:100008007E1480314E010C1C0A280B280F280C1076
:1000180040010D1041288C1E1228132841288C12EB
:1000280040018D140B30F1002630F0005E30890B52
:100038001B28F00B1B28F10B1B2840018D101030DA
:10004800F1003930F0000E30890B2828F00B2828F1
:10005800F10B282840018D140B30F1002630F000F8
:100068005E30890B3528F00B3528F10B3528400117
:100078008D1026309D00D6309C007E1009008031FE
:1000880045289C30840082308500A03086000030EE
:1000980087003C30843107248031CB3084008330A2
:1000A800850020308600013087000F308431072416
:1000B80080314101E601E7017E1040018131A2292A
:1000C80084310D2480318331FF2380318331A5238E
:1000D800803173084001ED007208EC0000306D02B9
:1000E800143003196C0203187A287B28DA28203088
:1000F8008C00AF308600003087002130840000304B
:1001080085000F30A00016001A00A00B8728D330F6
:100118008600003087006330840000308500093095
:10012800A00016001A00A00B9528F901F90A013061
:100138008331B82380314001EE01EF01B0286E0809
:10014800213E86008701010883314B23803101302D
:100158004001EE070030EF3D6E08213E8600870122
:100168000108031DB828B928A328F901F90A0230A3
:100178008331B82380314001EE01EF01D0286E08A9
:10018800633E86008701010883314B2380310130AB
:100198004001EE070030EF3D6E08633E86008701A0
:1001A8000108031DD828D928C3286A2800306D0201
:1001B800233003196C020318E228E328422910307F
:1001C8008C00A0308600003087003030840000307A
:1001D80085000F30A00016001A00A00BEF28BE30D3
:1001E8008600003087004E308400003085000B30D8
:1001F800A00016001A00A00BFD28F901F90A013029
:100208008331B82380314101DC01DD0118295C0804
:10021800303E86008701010883314B23803101304D
:100228004101DC070030DD3D5C08303E8600870177
:100238000108031D202921290B29F901F90A023097
:100248008331B82380314101DC01DD0138295C08A4
:100258004E3E86008701010883314B2380310130EF
:100268004101DC070030DD3D5C084E3E8600870119
:100278000108031D402941292B296A2808308C00D0
:1002880020308600013087003F3084000030850030
:100298000F30A00016001A00A00B4E29C9308600A6
:1002A8000030870059308400003085000A30A000F3
:1002B80016001A00A00B5C29F901F90A01308331F4
:1002C800B82380314101DE01DF0177295E083F3E16
:1002D80086008701010883314B23803101304101B9
:1002E800DE070030DF3D5E083F3E860087010108DB
:1002F800031D7F2980296A29F901F90A023083310F
:10030800B82380314101DE01DF0197295E08593E9B
:1003180086008701010883314B2380310130410178
:10032800DE070030DF3D5E08593E86008701010880
:10033800031D9F29A0298A296A28080083317B2365
:1003480081314101E001E1018231D8228131F90195
:10035800F90A01308331B82381314101E201E30117
:10036800C2296208E03E86008701010883314B23D9
:10037800813101304101E2070030E33D6208E03E8F
:10038800860087010108031DCA29CB29B529F9016F
:10039800F90A02308331B82381314101E201E301D6
:1003A800E2296208E13E86008701010883314B2378
:1003B800813101304101E2070030E33D6208E13E4E
:1003C800860087010108031DEA29EB29D529833115
:1003D800FF2381318331F423813183317B238131C0
:1003E8008331DA23813183319123813173084101CB
:1003F800E5007208E4008231FD22813100304101BC
:1004080065021F300319640203180B2A0C2A172AE5
:1004180083311823813140010C148C100C118C117C
:100428000C128C12F729003065026530031964023A
:10043800031C1F2A202A312A01306502F4300319CF
:1004480064020318282A292A312A40010C108C1426
:100458000C118C110C128C12F72901306502F43042
:1004680003196402031C392A3A2A4B2A033065020D
:100478002130031964020318422A432A4B2A4001F7
:100488000C108C100C158C110C128C12F7290330DF
:100498006502213003196402031C532A542A582A7E
:1004A800803164208131F72980314328F4007408B1
:1004B800F2000330F236890B5E2A72080139F30024
:1004C800F30CF30C40010F0873067F3973068F0095
:1004D8007408F2000230F236890B6F2A720801396B
:1004E800F300F30EF30DF30D0F087306BF3973060F
:1004F8008F0074360139F200F20EF20D0F08720601
:10050800DF3972068F0074080139F200F20E0F0805
:100518007206EF3972068F001014C8300032890B4A
:10052800922A40011010C8300032890B982A08001E
:10053800543465346D3470346534723461347434D1
:100548007534723465342034693473340034543467
:1005580065346D3470346534723461347434753490
:100568007234653420346934733400346A34753431
:10057800733474342034663469346E3465342E34FC
:10058800003474346F346F34203468346934673419
:1005980068342E34003474346F346F3420346C343F
:1005A8006F3477342E3400341430FB007A30890BE2
:1005B800DB2AFB0BDB2A03308331632382311430BF
:1005C800FB007A30890BE62AFB0BE62A02308331DE
:1005D80063238231843118248231F9010130833157
:1005E8003323823184311324823184311D248231B2
:1005F800080040010D19012B022B172B0630F300C0
:100608001330F200AE30890B072BF20B072BF30BDC
:10061800072B40010D1D112B122B172B0D19152B14
:10062800162B122B0D10080040010D140330F30097
:100638008A30F2005630890B1F2BF20B1F2BF30B5D
:100648001F2B40010D100330F3008A30F2005630A2
:10065800890B2C2BF20B2C2BF30B2C2B08004001B5
:10066800A0000830A1002003031D3B2B3C2B3D2B91
:1006780021157903031D412B422B462B0330FA0029
:100688007A08A10421088331632383310800F80024
:100698007808F5000430F536890B4F2B75080F39AB
:1006A800F60078080F39F7004001101576088231F6
:1006B8005A228331770882315A2283310800F800A0
:1006C8007808F5000430F536890B672B75080F3963
:1006D800F60078080F39F7004001101176088231CA
:1006E8005A228331770882315A22833108007E01E9
:1006F800B801C0304001910002307E01E400FA30B8
:10070800400195007E01C301FC30400192007E014A
:10071800D9010F30400194000800213041019E00AA
:100728000032410113149C2B0D08F5000C08F4004D
:1007380013189F2BA02B982B7508F3007408F20050
:100748000800183041019E000032410113141318AB
:10075800AE2BAF2BAB2B0D08F5000C08F400750879
:10076800F3007408F2000800FA007A03031DBD2B99
:10077800BE2BC22B7908FF3EFB00C52B79083F3EF4
:10078800FB007B08803E83316323833108005434A7
:1007980065346D347034653472346134743475344E
:1007A8007234653420346934733400348B139030D8
:1007B80040019E0048309F0026309D00D6309C00A6
:1007C8004E018C1296168B170800C034F934A434E5
:1007D800B034993492348234F83480349834FF3405
:1007E8008B134E010C100A307D0190000B144E0142
:1007F80016148B17080041019A01033098009D01D7
:10080800843093000800FE0012001E00FE0B082C26
:1008180000347E01B801C0304001910008000C305E
:100828008331632384310800283083316323843182
:0C08380008000130833163238431080084
:020000040001F9
:08000000FF3FFF3FFF3FFF3F00
:0A000E00F93FFF3F9F3FFF1FFF3F38
:00000001FF
